{
  "_format": "hh-sol-artifact-1",
  "contractName": "Election",
  "sourceName": "contracts/Election.sol",
  "abi": [
    {
      "inputs": [],
      "stateMutability": "nonpayable",
      "type": "constructor"
    },
    {
      "inputs": [
        {
          "internalType": "uint256",
          "name": "_id",
          "type": "uint256"
        },
        {
          "internalType": "string",
          "name": "_name",
          "type": "string"
        }
      ],
      "name": "addCandidate",
      "outputs": [],
      "stateMutability": "nonpayable",
      "type": "function"
    },
    {
      "inputs": [],
      "name": "admin",
      "outputs": [
        {
          "internalType": "address",
          "name": "",
          "type": "address"
        }
      ],
      "stateMutability": "view",
      "type": "function"
    },
    {
      "inputs": [
        {
          "internalType": "uint256",
          "name": "",
          "type": "uint256"
        }
      ],
      "name": "candidates",
      "outputs": [
        {
          "internalType": "uint256",
          "name": "id",
          "type": "uint256"
        },
        {
          "internalType": "string",
          "name": "name",
          "type": "string"
        },
        {
          "internalType": "uint256",
          "name": "voteCount",
          "type": "uint256"
        },
        {
          "internalType": "bool",
          "name": "exists",
          "type": "bool"
        }
      ],
      "stateMutability": "view",
      "type": "function"
    },
    {
      "inputs": [],
      "name": "candidatesCount",
      "outputs": [
        {
          "internalType": "uint256",
          "name": "",
          "type": "uint256"
        }
      ],
      "stateMutability": "view",
      "type": "function"
    },
    {
      "inputs": [],
      "name": "electionEnded",
      "outputs": [
        {
          "internalType": "bool",
          "name": "",
          "type": "bool"
        }
      ],
      "stateMutability": "view",
      "type": "function"
    },
    {
      "inputs": [],
      "name": "electionStarted",
      "outputs": [
        {
          "internalType": "bool",
          "name": "",
          "type": "bool"
        }
      ],
      "stateMutability": "view",
      "type": "function"
    },
    {
      "inputs": [],
      "name": "endElection",
      "outputs": [],
      "stateMutability": "nonpayable",
      "type": "function"
    },
    {
      "inputs": [
        {
          "internalType": "address",
          "name": "",
          "type": "address"
        }
      ],
      "name": "hasVoted",
      "outputs": [
        {
          "internalType": "bool",
          "name": "",
          "type": "bool"
        }
      ],
      "stateMutability": "view",
      "type": "function"
    },
    {
      "inputs": [],
      "name": "startElection",
      "outputs": [],
      "stateMutability": "nonpayable",
      "type": "function"
    },
    {
      "inputs": [
        {
          "internalType": "uint256",
          "name": "_candidateId",
          "type": "uint256"
        }
      ],
      "name": "vote",
      "outputs": [],
      "stateMutability": "nonpayable",
      "type": "function"
    }
  ],
  "bytecode": "0x608060405234801561001057600080fd5b50336000806101000a81548173ffffffffffffffffffffffffffffffffffffffff021916908373ffffffffffffffffffffffffffffffffffffffff1602179055506115b3806100606000396000f3fe608060405234801561001057600080fd5b506004361061009e5760003560e01c806359f784681161006657806359f784681461015c57806362d73eb814610166578063c94ca9e314610170578063d5346da11461018e578063f851a440146101ac5761009e565b80630121b93f146100a357806309eef43e146100bf5780631750a3d0146100ef5780632d35a8a21461010b5780633477ee2e14610129575b600080fd5b6100bd60048036038101906100b891906109e9565b6101ca565b005b6100d960048036038101906100d49190610a74565b6103e2565b6040516100e69190610abc565b60405180910390f35b61010960048036038101906101049190610c1d565b610402565b005b6101136105e6565b6040516101209190610c88565b60405180910390f35b610143600480360381019061013e91906109e9565b6105ec565b6040516101539493929190610d22565b60405180910390f35b6101646106b1565b005b61016e6107fb565b005b610178610955565b6040516101859190610abc565b60405180910390f35b610196610968565b6040516101a39190610abc565b60405180910390f35b6101b461097b565b6040516101c19190610d7d565b60405180910390f35b600060149054906101000a900460ff16610219576040517f08c379a000000000000000000000000000000000000000000000000000000000815260040161021090610de4565b60405180910390fd5b600060159054906101000a900460ff1615610269576040517f08c379a000000000000000000000000000000000000000000000000000000000815260040161026090610e50565b60405180910390fd5b600360003373ffffffffffffffffffffffffffffffffffffffff1673ffffffffffffffffffffffffffffffffffffffff16815260200190815260200160002060009054906101000a900460ff16156102f6576040517f08c379a00000000000000000000000000000000000000000000000000000000081526004016102ed90610ebc565b60405180910390fd5b6002600082815260200190815260200160002060030160009054906101000a900460ff16610359576040517f08c379a000000000000000000000000000000000000000000000000000000000815260040161035090610f28565b60405180910390fd5b6001600360003373ffffffffffffffffffffffffffffffffffffffff1673ffffffffffffffffffffffffffffffffffffffff16815260200190815260200160002060006101000a81548160ff02191690831515021790555060016002600083815260200190815260200160002060020160008282546103d89190610f77565b9250508190555050565b60036020528060005260406000206000915054906101000a900460ff1681565b60008054906101000a900473ffffffffffffffffffffffffffffffffffffffff1673ffffffffffffffffffffffffffffffffffffffff163373ffffffffffffffffffffffffffffffffffffffff1614610490576040517f08c379a000000000000000000000000000000000000000000000000000000000815260040161048790610ff7565b60405180910390fd5b600060149054906101000a900460ff16156104e0576040517f08c379a00000000000000000000000000000000000000000000000000000000081526004016104d790611063565b60405180910390fd5b6002600083815260200190815260200160002060030160009054906101000a900460ff1615610544576040517f08c379a000000000000000000000000000000000000000000000000000000000815260040161053b906110cf565b60405180910390fd5b604051806080016040528083815260200182815260200160008152602001600115158152506002600084815260200190815260200160002060008201518160000155602082015181600101908161059b91906112fb565b506040820151816002015560608201518160030160006101000a81548160ff02191690831515021790555090505060018060008282546105db9190610f77565b925050819055505050565b60015481565b60026020528060005260406000206000915090508060000154908060010180546106159061111e565b80601f01602080910402602001604051908101604052809291908181526020018280546106419061111e565b801561068e5780601f106106635761010080835404028352916020019161068e565b820191906000526020600020905b81548152906001019060200180831161067157829003601f168201915b5050505050908060020154908060030160009054906101000a900460ff16905084565b60008054906101000a900473ffffffffffffffffffffffffffffffffffffffff1673ffffffffffffffffffffffffffffffffffffffff163373ffffffffffffffffffffffffffffffffffffffff161461073f576040517f08c379a000000000000000000000000000000000000000000000000000000000815260040161073690610ff7565b60405180910390fd5b600060149054906101000a900460ff1661078e576040517f08c379a000000000000000000000000000000000000000000000000000000000815260040161078590611419565b60405180910390fd5b600060159054906101000a900460ff16156107de576040517f08c379a00000000000000000000000000000000000000000000000000000000081526004016107d590611485565b60405180910390fd5b6001600060156101000a81548160ff021916908315150217905550565b60008054906101000a900473ffffffffffffffffffffffffffffffffffffffff1673ffffffffffffffffffffffffffffffffffffffff163373ffffffffffffffffffffffffffffffffffffffff1614610889576040517f08c379a000000000000000000000000000000000000000000000000000000000815260040161088090610ff7565b60405180910390fd5b600060149054906101000a900460ff16156108d9576040517f08c379a00000000000000000000000000000000000000000000000000000000081526004016108d0906114f1565b60405180910390fd5b60006001541161091e576040517f08c379a00000000000000000000000000000000000000000000000000000000081526004016109159061155d565b60405180910390fd5b6001600060146101000a81548160ff02191690831515021790555060008060156101000a81548160ff021916908315150217905550565b600060159054906101000a900460ff1681565b600060149054906101000a900460ff1681565b60008054906101000a900473ffffffffffffffffffffffffffffffffffffffff1681565b6000604051905090565b600080fd5b600080fd5b6000819050919050565b6109c6816109b3565b81146109d157600080fd5b50565b6000813590506109e3816109bd565b92915050565b6000602082840312156109ff576109fe6109a9565b5b6000610a0d848285016109d4565b91505092915050565b600073ffffffffffffffffffffffffffffffffffffffff82169050919050565b6000610a4182610a16565b9050919050565b610a5181610a36565b8114610a5c57600080fd5b50565b600081359050610a6e81610a48565b92915050565b600060208284031215610a8a57610a896109a9565b5b6000610a9884828501610a5f565b91505092915050565b60008115159050919050565b610ab681610aa1565b82525050565b6000602082019050610ad16000830184610aad565b92915050565b600080fd5b600080fd5b6000601f19601f8301169050919050565b7f4e487b7100000000000000000000000000000000000000000000000000000000600052604160045260246000fd5b610b2a82610ae1565b810181811067ffffffffffffffff82111715610b4957610b48610af2565b5b80604052505050565b6000610b5c61099f565b9050610b688282610b21565b919050565b600067ffffffffffffffff821115610b8857610b87610af2565b5b610b9182610ae1565b9050602081019050919050565b82818337600083830152505050565b6000610bc0610bbb84610b6d565b610b52565b905082815260208101848484011115610bdc57610bdb610adc565b5b610be7848285610b9e565b509392505050565b600082601f830112610c0457610c03610ad7565b5b8135610c14848260208601610bad565b91505092915050565b60008060408385031215610c3457610c336109a9565b5b6000610c42858286016109d4565b925050602083013567ffffffffffffffff811115610c6357610c626109ae565b5b610c6f85828601610bef565b9150509250929050565b610c82816109b3565b82525050565b6000602082019050610c9d6000830184610c79565b92915050565b600081519050919050565b600082825260208201905092915050565b60005b83811015610cdd578082015181840152602081019050610cc2565b60008484015250505050565b6000610cf482610ca3565b610cfe8185610cae565b9350610d0e818560208601610cbf565b610d1781610ae1565b840191505092915050565b6000608082019050610d376000830187610c79565b8181036020830152610d498186610ce9565b9050610d586040830185610c79565b610d656060830184610aad565b95945050505050565b610d7781610a36565b82525050565b6000602082019050610d926000830184610d6e565b92915050565b7f456c656374696f6e206e6f742073746172746564000000000000000000000000600082015250565b6000610dce601483610cae565b9150610dd982610d98565b602082019050919050565b60006020820190508181036000830152610dfd81610dc1565b9050919050565b7f456c656374696f6e20656e646564000000000000000000000000000000000000600082015250565b6000610e3a600e83610cae565b9150610e4582610e04565b602082019050919050565b60006020820190508181036000830152610e6981610e2d565b9050919050565b7f416c726561647920766f74656400000000000000000000000000000000000000600082015250565b6000610ea6600d83610cae565b9150610eb182610e70565b602082019050919050565b60006020820190508181036000830152610ed581610e99565b9050919050565b7f43616e646964617465206e6f7420666f756e6400000000000000000000000000600082015250565b6000610f12601383610cae565b9150610f1d82610edc565b602082019050919050565b60006020820190508181036000830152610f4181610f05565b9050919050565b7f4e487b7100000000000000000000000000000000000000000000000000000000600052601160045260246000fd5b6000610f82826109b3565b9150610f8d836109b3565b9250828201905080821115610fa557610fa4610f48565b5b92915050565b7f4f6e6c792061646d696e00000000000000000000000000000000000000000000600082015250565b6000610fe1600a83610cae565b9150610fec82610fab565b602082019050919050565b6000602082019050818103600083015261101081610fd4565b9050919050565b7f43616e6e6f742061646420616674657220737461727400000000000000000000600082015250565b600061104d601683610cae565b915061105882611017565b602082019050919050565b6000602082019050818103600083015261107c81611040565b9050919050565b7f43616e6469646174652065786973747300000000000000000000000000000000600082015250565b60006110b9601083610cae565b91506110c482611083565b602082019050919050565b600060208201905081810360008301526110e8816110ac565b9050919050565b7f4e487b7100000000000000000000000000000000000000000000000000000000600052602260045260246000fd5b6000600282049050600182168061113657607f821691505b602082108103611149576111486110ef565b5b50919050565b60008190508160005260206000209050919050565b60006020601f8301049050919050565b600082821b905092915050565b6000600883026111b17fffffffffffffffffffffffffffffffffffffffffffffffffffffffffffffffff82611174565b6111bb8683611174565b95508019841693508086168417925050509392505050565b6000819050919050565b60006111f86111f36111ee846109b3565b6111d3565b6109b3565b9050919050565b6000819050919050565b611212836111dd565b61122661121e826111ff565b848454611181565b825550505050565b600090565b61123b61122e565b611246818484611209565b505050565b5b8181101561126a5761125f600082611233565b60018101905061124c565b5050565b601f8211156112af576112808161114f565b61128984611164565b81016020851015611298578190505b6112ac6112a485611164565b83018261124b565b50505b505050565b600082821c905092915050565b60006112d2600019846008026112b4565b1980831691505092915050565b60006112eb83836112c1565b9150826002028217905092915050565b61130482610ca3565b67ffffffffffffffff81111561131d5761131c610af2565b5b611327825461111e565b61133282828561126e565b600060209050601f8311600181146113655760008415611353578287015190505b61135d85826112df565b8655506113c5565b601f1984166113738661114f565b60005b8281101561139b57848901518255600182019150602085019450602081019050611376565b868310156113b857848901516113b4601f8916826112c1565b8355505b6001600288020188555050505b505050505050565b7f4e6f742073746172746564000000000000000000000000000000000000000000600082015250565b6000611403600b83610cae565b915061140e826113cd565b602082019050919050565b60006020820190508181036000830152611432816113f6565b9050919050565b7f416c726561647920656e64656400000000000000000000000000000000000000600082015250565b600061146f600d83610cae565b915061147a82611439565b602082019050919050565b6000602082019050818103600083015261149e81611462565b9050919050565b7f416c726561647920737461727465640000000000000000000000000000000000600082015250565b60006114db600f83610cae565b91506114e6826114a5565b602082019050919050565b6000602082019050818103600083015261150a816114ce565b9050919050565b7f4e6f2063616e6469646174657300000000000000000000000000000000000000600082015250565b6000611547600d83610cae565b915061155282611511565b602082019050919050565b600060208201905081810360008301526115768161153a565b905091905056fea2646970667358221220bd5305ddac917b157a5674b3e6208c9f3a9c6f101ba6c38875371c74e674e3cf64736f6c63430008180033",
  "linkReferences": {},
  "deployedLinkReferences": {}
}